:100000000000011015200100492001009125010088
:100010004D2001004F200100512001000000000090
:10002000000000000000000000000000532001005C
:100030005520010000000000572001001925010093
:100040005D2001005F200100612001009DEA0000A9
:100050006520010067200100692001006B2001007C
:100060006D2001006F20010071200100732001004C
:100070007520010077200100792001007B2001001C
:100080007D2001007F2001008120010083200100EC
:100090008520010087200100892001008B200100BC
:1000A0008D2001008F20010091200100932001008C
:1000B00015F5000097200100992001009B20010008
:1000C0009D2001009F200100A1200100A32001002C
:1000D000A5200100A7200100A9200100AB200100FC
:1000E000AD20010010B5054C237833B9044B13B192
:1000F0000448AFF300800123237010BD1C070010DB
:1001000000000000E4AF010008B5064B1BB1064833
:100110000649AFF300800648036813B1054B03B1ED
:10012000984708BD00000000E4AF01002007001060
:100130001807001000000000154B002B08BF134BE0
:100140009D46A3F5803A00218B460F461348144A7A
:10015000121A13F085FD0F4B002B00D098470E4B61
:10016000002B00D098470020002104000D000D480E
:10017000002802D00C4813F03FFE13F049FD200088
:10018000290012F0B7FA13F033FD00BF0000080099
:100190000000011000000000000000001C0700101B
:1001A00054BB0010F93D0100053E010080B586B04A
:1001B00000AF78607B685B691433FB604FF0FF33FE
:1001C0003B6100237B610DE07A6913465B001344B9
:1001D000DB00FA6813441846182105F017FD7B6907
:1001E00001337B617B69092BEEDD40F6B8301149A4
:1001F000FA6809F03FFE0246FB68C3F8F020FB688E
:10020000D3F8F030002B0FD00B48796801F086FF4F
:100210000246FB68C3F8F420FB68D3F8F430B3F16E
:10022000FF3F01D000233B613B6918461837BD46AC
:1002300080BD00BF690200000109000080B584B0E4
:1002400000AF78607B685B691433FB60FB68D3F8B0
:10025000F030184609F03EFEFB680022C3F8F0209B
:100260001037BD4680BD00BF80B584B000AF786058
:100270007B68BB600023FB6040E0B968FA68134606
:100280005B001344DB000B4408331B68002B32D0A7
:1002900009F086FD0146B868FA6813465B0013440E
:1002A000DB00034408335B68CA1A42F6E0639A42F3
:1002B00021D9B968FA6813465B001344DB000B448C
:1002C00010331B68002B0BD0B968FA6813465B002B
:1002D0001344DB000B4410331B68184602F010FC7B
:1002E000FA6813465B001344DB00BA6813441846EF
:1002F000182105F08BFCFB680133FB60FB68092BC0
:10030000BBDD1037BD4680BD80B588B000AFF8605A
:10031000B9607A60FB685B6914333B610023FB6161
:1003200027E03969FA6913465B001344DB000B448C
:1003300008331A68BB689A4218D1FA6913465B0001
:100340001344DB003A69134418467968062205F025
:10035000A1FA09F025FD01463869FA6913465B00E8
:100360001344DB0003440833596099E0FB6901330F
:10037000FB61FB69092BD4DD0023FB610EE03969C9
:10038000FA6913465B001344DB000B4408331B6817
:10039000002B00D105E0FB690133FB61FB69092BF0
:1003A000EDDDFB690A2B2ED100237B610023BB61AD
:1003B0000023FB6122E009F0F3FC01463869FA6989
:1003C00013465B001344DB00034408335B68CA1A1E
:1003D0007B699A420FD909F0E3FC01463869FA6952
:1003E00013465B001344DB00034408335B68CB1AFD
:1003F0007B61FB69BB61FB690133FB61FB69092B15
:10040000D9DDBB69FB613969FA6913465B001344A6
:10041000DB000B4410331B68002B1FD03969FA69CD
:1004200013465B001344DB000B4410331B68184673
:1004300002F066FB3969FA6913465B001344DB007E
:100440000B44103300221A603969FA6913465B00C5
:100450001344DB000B44103300225A603969FA69F7
:1004600013465B001344DB000B440833BA681A6080
:10047000FA6913465B001344DB003A6913441846DB
:100480007968062205F006FA09F08AFC0146386907
:10049000FA6913465B001344DB00034408335960D8
:1004A000FA6913465B001344DB003A6913441846AB
:1004B0002037BD4680BD00BF80B586B000AFF86074
:1004C000B9607A60FB685B6914333B6100237B6130
:1004D0002EE039697A6913465B001344DB000B4454
:1004E00008331A68BB689A421FD17A6913465B00C9
:1004F0001344DB003A69134418467968062205F074
:10050000C9F909F04DFC014638697A6913465B0068
:100510001344DB000344083359607A6913465B00D7
:100520001344DB003A69134406E07B6901337B61C5
:100530007B69092BCDDD002318461837BD4680BDE9
:1005400080B586B000AF786039607B685B69143332
:10055000FB6000233B6100237B6127E0F9687A6937
:1005600013465B001344DB000B4408331A683B68F6
:100570009A4218D17A6913465B001344DB00FA688B
:10058000134418460D49062205F04EFB0346002B86
:1005900008D07A6913465B001344DB00FA68134401
:1005A0003B6106E005E07B6901337B617B69092BD8
:1005B000D4DD3B6918461837BD4680BDF83E0100C2
:1005C00080B588B000AFF860B9607A60FB685B699D
:1005D00014337B610023FB610FE07969FA691346EC
:1005E0005B001344DB000B4408331A68BB689A4273
:1005F00000D105E0FB690133FB61FB69092BECDDF0
:10060000FB690A2B06D1F868B968204AFFF77CFE1F
:10061000B86107E0FA6913465B001344DB007A69AE
:100620001344BB61BB691B69002B04D0BB691B6908
:10063000184602F065FAFB690A2B13D0BB691B69E7
:10064000002B0BD009F0ACFB0246BB695B69D31AE7
:10065000642202FB03F3B3F57A7F03D8BB691B69FD
:10066000002B0CD109F09CFB0246BB695A61BB69A7
:100670007A681A61F868B96800F0E6F802E0BB69C8
:100680007A681A612037BD4680BD00BFF83E010080
:1006900090B58BB000AF786039607B685B691433CC
:1006A0003B623B68DB68FB613B68002B00F0C2806B
:1006B0003B685B691B2B40F2BD80FB691B889BB2CA
:1006C000B3F5807F40F0B680FB691B79062B40F0C4
:1006D000B180FB695B889BB2082B40F0AB80FB6963
:1006E0005B79042B40F0A6803B685B691C2B08D922
:1006F0003B685B69C3F11C033A461046194602F099
:10070000DDFA07F10C0378681946062203F0B8F801
:10071000FB6903F1080207F10C0310461946062293
:1007200005F082FA0346002B00F08480FB69083351
:1007300018464449062205F077FA0346002B79D083
:10074000FB69D3F80E30BB61FB699B697B617B68F9
:100750005A6ABB699A422DD07B685A6A7B699A4271
:1007600008D1FB6908337868B9691A46FFF7CCFDF0
:10077000786207E0FB6908337868B9691A46FFF7C1
:100780009BFE78627B6A002B1AD07B6A1B69002B68
:1007900016D07B685B699C687A6A7B6A1B6978689B
:1007A0004FF40061A0477B6A00221A617B6A002235
:1007B0005A6105E03B6AD3F8F430184601F08AFD2F
:1007C000FB69DB889BB2B3F5807F33D17B685A6AC3
:1007D0007B699A422ED1FB6900229A71002242F075
:1007E0000202DA71FB6903F11202FB690833104659
:1007F0001946062205F04EF8FB6903F1080207F1DD
:100800000C0310461946062205F044F8FB69D3F89C
:100810000E20FB699A617B685A6AFB69C3F80E2057
:100820007B685B699C683B68786840F60601054A0E
:10083000A04703E03B68184602F062F92C37BD463A
:1008400090BD00BF003F010090B587B000AF786059
:1008500039601C20012101F039FF78617B69002B90
:1008600046D07B69DB683B613B6900221A7000223D
:1008700042F001025A703B69002242F008029A706D
:100880000022DA703B6906221A713B6904225A7110
:100890003B6900229A71002242F00102DA7107F1ED
:1008A000080378681946062202F0EAFF3B69123312
:1008B00018461149062204F0EDFF3B6903F10802D6
:1008C00007F1080310461946062204F0E3FF3B69CE
:1008D0003A689A617B685A6A3B69C3F80E207B6864
:1008E0005B699C68786840F60601044A7B69A0470A
:1008F0001C37BD4690BD00BFF83E0100003F01001F
:1009000080B582B000AF7860786803F07BF8083774
:10091000BD4680BD80B584B000AF78607B685B6900
:100920001433BB6001F094FC0023FB602DE0B96838
:10093000FA6813465B001344DB000B4410331B685A
:10094000002B1FD0B968FA6813465B001344DB0024
:100950000B4410331B68184602F0D2F8B968FA68E5
:1009600013465B001344DB000B44103300221A6073
:10097000B968FA6813465B001344DB000B4410337C
:1009800000225A60FB680133FB60FB68092BCEDD57
:1009900001F06CFC1037BD4680BD00BF80B487B04D
:1009A00000AFF860B9607A606FE07B689A1C7A608B
:1009B0001B88FA681344FB607B689A1C7A601B886A
:1009C000FA681344FB607B689A1C7A601B88FA689B
:1009D0001344FB607B689A1C7A601B88FA68134496
:1009E000FB607B689A1C7A601B88FA681344FB6082
:1009F0007B689A1C7A601B88FA681344FB607B68EA
:100A00009A1C7A601B88FA681344FB607B689A1C06
:100A10007A601B88FA681344FB607B689A1C7A60D2
:100A20001B88FA681344FB607B689A1C7A601B88F9
:100A3000FA681344FB607B689A1C7A601B88FA682A
:100A40001344FB607B689A1C7A601B88FA68134425
:100A5000FB607B689A1C7A601B88FA681344FB6011
:100A60007B689A1C7A601B88FA681344FB607B6879
:100A70009A1C7A601B88FA681344FB607B689A1C96
:100A80007A601B88FA681344FB60BB68203BBB603C
:100A9000BB68002B89DABB682033BB601BE07B6836
:100AA0009A1C7A601B88FA681344FB607B689A1C66
:100AB0007A601B88FA681344FB607B689A1C7A6032
:100AC0001B88FA681344FB607B689A1C7A601B8859
:100AD000FA681344FB60BB68083BBB60BB68002B33
:100AE000DDDABB680833BB6006E07B689A1C7A607D
:100AF0001B88FA681344FB60BB68023BBB60BB68A1
:100B0000002BF2DABB680233BB60BB68002B07D056
:100B10007B681B88DBB2FB82FB8AFA681344FB60AC
:100B2000FB6818461C37BD465DF8047B704700BF64
:100B300080B588B000AF7860396000237B617B6846
:100B4000FB61FB69DB68BB617B681A693B689A42A1
:100B500002D93B683B6142E07B681B693B613EE038
:100B60003A683B69D31A3B6078693969BA69FFF71B
:100B700015FF7861FB691B68FB61FB69DB68BB6182
:100B80003B6903F00103002B1AD03B68002B14D003
:100B9000BB691B7818460EF0C3FC0346FB81BB699A
:100BA0000133BB61FB897A6913447B613B68013B7C
:100BB0003B604FF0FF333B6104E000233B6101E009
:100BC00000233B61FB691A693B689A4202D93B6882
:100BD0003B6104E0FB691A693B6913443B613B6874
:100BE000002BBDD17B6918462037BD4680BD00BFB4
:100BF00080B584B000AF7860396078683968FFF7F5
:100C000097FFF860FB681A0CFB689BB21344FB600B
:100C1000FB681B0CFA681344FB60FB689BB2DB4368
:100C20009BB218461037BD4680BD00BF80B584B06A
:100C300000AF78603960002039687A68FFF7AEFE4F
:100C4000F860FB681A0CFB689BB21344FB60FB68FE
:100C50001B0CFA681344FB60FB689BB2DB439BB23E
:100C600018461037BD4680BD90B587B000AFF8601C
:100C70007B600B467B8113463B817B8900201946B4
:100C8000FA68FFF78BFE78613C897B8918460EF085
:100C900047FC034623447A6913447B617869F96A07
:100CA0007A68FFF77BFE78617869F96ABA6AFFF7BC
:100CB00075FE78617B691A0C7B699BB213447B617A
:100CC0007B691B0C7A6913447B617B699BB2DB43B4
:100CD0009BB218461C37BD4690BD00BF90B585B08D
:100CE00000AF786013460A467A803B803B8878687C
:100CF0001946FFF71DFFF8607C883B8818460EF008
:100D00000FFC03462344FA681344FB60FB681A0C8B
:100D1000FB689BB21344FB60FB681B0CFA6813442E
:100D2000FB60FB689BB218461437BD4690BD00BF00
:100D300080B586B000AFB9607A603B600346FB8146
:100D400000237B61FB897B6178693968BA68FFF7AA
:100D500025FE7861786939687A68FFF71FFE786147
:100D60007B691A0C7B699BB213447B617B691B0C0A
:100D70007A6913447B617B699BB2DB439BB2184663
:100D80001837BD4680BD00BF80B400AF034B1B6861
:100D90001846BD465DF8047B704700BF3807001059
:100DA00080B483B000AF7860034B7A681A600C3768
:100DB000BD465DF8047B704738070010B0B588B0B9
:100DC00004AF786039607B68FB60FB681B781A466B
:100DD000FB6801331B78F968023109780D46F96820
:100DE000033109780C46F968043109780846F96836
:100DF0000531097800950194029003913868034900
:100E00000BF068F91037BD46B0BD00BF083F0100C8
:100E100080B48DB000AF7860396007F10803BB6221
:100E20000023FB6231E03B6A2F2B0CDD3B6A392B40
:100E300009DCFB6A1A013B6A1344303BFB627B68A6
:100E400001337B6021E03B6A602B02DD3B6A662B4D
:100E500005DD3B6A402B17DD3B6A462B14DCFB6A41
:100E60001A013B6A03F10A013B6A602B04DD3B6A0D
:100E7000662B01DC612300E04123CB1A1344FB62A3
:100E80007B6801337B6000E006E07B681B785BB227
:100E90003B623B6A002BC6D17B681B785BB23A2B66
:100EA0000FD1BB6A1A1DBA62FA6A1A607B680133F5
:100EB0007B6007F108031833BA6A9A4200D330E026
:100EC000AEE700BF7B681B78002B05D07B681B78E2
:100ED0005BB2202B00D024E0BB6A1A1DBA62FA6A0A
:100EE0001A60BA6A07F10803D31A183B032B15D806
:100EF00000237B620EE07B6A3A681A447B6A9B009F
:100F000007F130010B4453F8283CDBB213707B6AC5
:100F100001337B627B6A052BEDDD00E001E00023FD
:100F200001E04FF0FF3318463437BD465DF8047BCF
:100F3000704700BF80B586B000AFF860B960134657
:100F4000FB80FB68002B21D0BB68002B1ED0002348
:100F50007B6112E00F4B7A6933F83230FA889A429B
:100F600008D10C4A7B69DB0013445B68F868B968F8
:100F7000984705E07B6901337B617B69012BE9D9E7
:100F80007B69022B02D1B86801F0BAFD1837BD4663
:100F900080BD00BF443F010090B585B000AF7860D0
:100FA0007868FFF703F9F860FB68002B14D17B68C1
:100FB0005C69786802F0DAFC0346E3607B685C6990
:100FC000282008497A6808F055FF03462361064B3C
:100FD0001B685A1C044B1A60FB6818461437BD4640
:100FE00090BD00BF651000003C07001080B582B0C6
:100FF00000AF78607B685B691B69184608F06AFF80
:101000007868FFF71BF9044B1B685A1E024B1A60E5
:101010000837BD4680BD00BF3C07001080B582B0D8
:1010200000AF78607868FFF775FC0837BD4680BD73
:1010300080B582B000AF78607B685B6A084819466B
:101040000AF0F0FF7B685B6A002B05D07B685B6A67
:1010500078681946FFF7F8FB0837BD4680BD00BF2A
:10106000283F010080B584B000AF78607B68FB60EA
:10107000FB685B69DB68BB60F86802F077FC0246DE
:10108000BB689A420BD0BB68002B02D1F868FFF70F
:10109000CFFFFB685B69BA6882F00102DA60103743
:1010A000BD4680BD90B589B000AFF860B9607A6088
:1010B000B868F96800F04AFE0346002B07D007F134
:1010C000140318462649062204F0E4FB38E0BB6806
:1010D00003F0F003E02B1DD101233B7500237B754A
:1010E0005E23BB75B8680EF031FA03461B0CDBB209
:1010F00003F07F03DBB2FB75B8680EF027FA0346F6
:101100001B0ADBB23B76B8680EF020FA0346DBB26E
:101110007B7615E0F868B968FFF712FAF861FB69A9
:10112000002B07D007F114031846F969062204F0D2
:10113000B1FB05E0F868B9687A68FFF741FA0AE0A0
:10114000FB685B699C6807F11403F8684FF4006161
:101150001A467B68A04700BF2437BD4690BD00BF3C
:10116000003F010080B58AB000AFF860B9607A60D6
:101170003B60386B01F0C4FCFB68002B00F004817D
:101180003B68002B00F000813B681846042101F009
:10119000DDFC38623B6A002B00D1F5E03B6A3B6026
:1011A0003B68DB68FB613A683B685B69104619463F
:1011B000FFF71EFD0346002B40F0E680B868F96893
:1011C00000F0C4FD0346002B40F0DE80BB6803F056
:1011D000F003E02B00F0D880FB691B78033B092B60
:1011E00000F2CF8001A252F823F000BF511200009C
:1011F000F912000083130000831300008313000022
:10120000151200008313000083130000C7120000B2
:10121000E71200003B685B69072B40F2B5807868F5
:10122000F96800F093FD0346002B40F0AD807B6829
:1012300003F0F003E02B00F0A780FB6900221A7096
:101240003B68F8687968BA6800F0A6F800BF9FE0CC
:10125000FB695B780C2B00F2968001A252F823F018
:10126000951200009D120000A5120000AD120000B2
:10127000BD120000B5120000951200009D12000082
:101280009D120000951200009D12000095120000B2
:101290009D120000062387F8273013E0022387F809
:1012A00027300FE0032387F827300BE0042387F86B
:1012B000273007E0052387F8273003E0012387F86C
:1012C000273000BF20E0FB695B78002B02D0012BA8
:1012D00004D059E0072387F8273003E0082387F874
:1012E000273000BF10E0FB695B78012B00D94BE091
:1012F000092387F8273007E0FB695B78002B00D0D3
:1013000042E0002387F827303B685B69232B00D835
:101310003AE03B685B69242B08D93B685B69C3F101
:1013200024033A461046194601F0C8FC3A683B6867
:101330005B691046194601F009FC38623B6A002BD4
:1013400000D121E03B6A3B603B68DB68BB61BB6965
:101350005B7C012000211A4602F02CFC78617B693D
:10136000002B0DD07B699B69002B09D07B699B69A1
:10137000BA69083297F8271008461146984703E0E3
:1013800002E000BF00E000BF3B68184601F0B8FB78
:101390002837BD4680BD00BF80B58CB006AFF86071
:1013A000B9607A603B603B68DB687B617B690022E7
:1013B0009A700022DA703B685B6938681946FFF75B
:1013C00017FC03461A467B695A800023009340238A
:1013D00001933B68029300230393002304930023AB
:1013E0000593F868B9687A68012300F0A7FA1837FE
:1013F000BD4680BD80B58AB000AFF8607B600B460B
:10140000FB721346BB727B68002B00F01A817B686D
:10141000DB687B627B6ADB683B627B6A1B69FB6122
:101420007B6ADB889BB21A464FF61F731340002B72
:1014300040F003817B6A5B7A012B6ED17B68DA68AE
:101440007B6A1B7803F00F039B0013441B78082B67
:1014500063D07B68DA687B6A1B7803F00F039B001C
:1014600013441B78002B58D07B68DA687B6A1B78A2
:1014700003F00F039B0013441B780D2B4DD07B68AA
:10148000DA687B6A1B7803F00F039B0013441B7818
:101490000E2B42D07B68DA687B6A1B7803F00F035F
:1014A0009B0013441B780F2B37D07B68DA687B6A6C
:1014B0001B7803F00F039B0013441B78102B2CD0D8
:1014C0007B68DA687B6A1B7803F00F039B00134488
:1014D0001B78112B21D07B68DA687B6A1B7803F0BC
:1014E0000F039B0013441B78122B16D07B68DA681D
:1014F0007B6A1B7803F00F039B0013441B78092BB6
:101500000BD07B68DA687B6A1B7803F00F039B00C3
:1015100013441B780A2B40F09080386AF96800F079
:1015200015FC0346002B40F088803B6A03F0F00373
:10153000E02B00F082803B6A03F0F003F02B7CD0BC
:10154000F869F96800F002FC0346002B75D1FB69CD
:1015500003F0F003E02B70D07B689B6903F002037B
:10156000002B6AD17B689B6903F00403002B64D1D4
:101570000820002101F0AAF8B861BB69002B00D156
:101580005BE0BB69DB687B617B6900221A7100222A
:101590005A7100229A710022DA71FB7A0C2B0BD15E
:1015A000BB7A9BB218460DF0BBFF03461A467B6917
:1015B0009A800023BB7212E0FB7A0C2B0FD1BB7A0E
:1015C000042B0CD1FB68002B09D0FB681B699BB274
:1015D00018460DF0A5FF03461A467B699A807B6981
:1015E000FA7A1A707B69BA7A5A707B6A1B7803F0B0
:1015F0000F039B0008331A467B685B699A420ED240
:101600007B6A1B7803F00F039B001A467B685B69BB
:10161000D31A08333A1D1046194601F04FFB7B6878
:10162000B869194601F0F8FC03467B607B68F868EE
:10163000F9693A6AFFF7B0FE03E07B68184601F0EB
:101640005FFA2837BD4680BD80B582B000AF7860B4
:1016500039603B1D18463968102200F0D5F8034662
:1016600018460837BD4680BD80B582B000AF7860AF
:1016700039603B687868194600F058F80346184608
:101680000837BD4680BD00BF80B584B000AFB960EB
:101690007A603B600346FB81FB89012B06D1B86869
:1016A00079683A6800F0B0F8034600E00023184675
:1016B0001037BD4680BD00BF80B584B000AFB960B3
:1016C0007A603B600346FB81FB89012B0BD13B68B1
:1016D000032B02D84FF0FF3307E0B868796800F0B9
:1016E00025F8034601E04FF0FF3318461037BD469A
:1016F00080BD00BF80B582B000AF786039603B68C4
:101700000433012079681A460423FFF7D5FF034606
:10171000002B04D13B6801221A80002301E04FF026
:10172000FF3318460837BD4680BD00BF80B588B07E
:1017300000AF786039600023FB610023BB6107F1D3
:1017400008037B617B6900221A7041E03B692F2B03
:101750002CDD3B69392B29DC7B691B781A46134643
:101760009B0013445B001A463B69303B1344FB600B
:10177000FB69002B04D07B691B78002B00D13DE076
:10178000FB68FF2B00D939E0FB68DAB27B691A707D
:10179000FB69002B09D1BB690133BB61BB69042B19
:1017A00000DD2BE00123FB6112E011E03B692E2BF1
:1017B00024D1FB69002B21D0BB69042B00D11DE093
:1017C0007B6901337B617B6900221A700023FB6116
:1017D0007B685A1C7A601B785BB23B613B69002BCB
:1017E000B4D1BB69032B00DC08E007F108033868BB
:1017F0001946042204F04EF8002301E04FF0FF33B5
:1018000018462037BD4680BD90B58FB004AFF86054
:10181000B9607A60FB687B627B6A1B787A6A013206
:10182000127814467A6A0232127810467A6A0332C3
:101830001278114607F110020094019002911046AF
:1018400010210D4A0AF072FC38623B6A002B03DD5E
:101850003A6A7B689A4201DB002308E07B6807F163
:101860001002B86811461A4604F0CEFABB68184652
:101870002C37BD4690BD00BF543F010080B582B0FB
:1018800000AF4FF0FF337B600948002100F046FCB9
:101890000246084B1A60074B1B68B3F1FF3F01D0AB
:1018A00000237B607B6818460837BD4680BD00BFBB
:1018B000791B00004807001080B500AF00F02EFA39
:1018C00080BD00BF80B584B000AF786001F052FFEA
:1018D000B8600D4B1B68FB600EE0FB685A6A7B68C2
:1018E0005A40FB685B6B1340002B02D1FB68BB6066
:1018F00005E0FB681B68FB60FB68002BEDD1BB6853
:1019000018461037BD4680BDECBA001080B485B0D3
:1019100000AF786039603B6803F114027B681B6993
:101920009A4202D90123FB6001E00023FB60FB68BF
:1019300018461437BD465DF8047B704780B588B003
:1019400000AFF860B9607A60FB70FB68002B0AD1C9
:101950007B681846FFF7B6FFF860FB68002B02D1E2
:101960001023FB6197E0BB68002B02D1FB685B6A28
:10197000BB603B6B5B691433B3F5205F02D908236E
:10198000FB6188E01420012100F0A0FEB861BB6972
:10199000002B02D10323FB617DE0FB6B002B0ED0FB
:1019A000FB6B198807F108023B1D084611461A46D1
:1019B0000423FFF7BDF903461A46FB6B1A80BB6987
:1019C000DB687B617B691B78DBB203F00F03DBB262
:1019D00043F04003DBB2DAB27B691A70324B1B88EA
:1019E0005A1C91B2304A118018460DF099FD0346F9
:1019F0001A467B699A807B6997F828205A703B6B5E
:101A00005B699BB214339BB23B617B691B7823F00B
:101A10000F03DBB243F00503DAB27B691A707B690E
:101A200000229A710022DA717B6B002B07D07B6950
:101A3000DB889BB243F040039AB27B69DA807B6912
:101A400097F82C201A727B69FA785A72BA687B6907
:101A5000DA607A687B691A613B699BB218460DF0BF
:101A60005FFD03461A467B695A80B869396B01F0FD
:101A7000D3FA3863FB681A693B699A4202D2082399
:101A8000FB6108E07B68F86819463A6BBB6B00F0B5
:101A90000DF8002303E0386B01F032F8FB691846BB
:101AA0002037BD4680BD00BF4C07001080B586B012
:101AB00000AFF860B9607A603B607B68DB687B618F
:101AC0007B6900229A720022DA727B691B7803F02C
:101AD0000F039B0078681946FFF78AF803461A46F9
:101AE0007B695A81B868F96800F030F90346002B29
:101AF00013D1BB6803F0F003E02B0ED03B68002B42
:101B00000BD1FB685A6ABB685A40FB685B6B134099
:101B1000002B02D0FB681B6CBB60FB689B691B69D8
:101B2000F868B9687A6898471837BD4680BD00BF25
:101B300080B582B000AF786039607B68002B13D02D
:101B40003B68002B10D00A4879683A6800F01AFA0E
:101B50000346002B03D0386800F0D2FF04E0054BA9
:101B60001B68184600F0B6FB0837BD4680BD00BFB5
:101B7000400700104807001090B58FB002AF7860A2
:101B800000F066FBB7E0BB6800225A60BB681846ED
:101B9000142100F0DBFFF862FB6A002B04D1BB6864
:101BA000184600F0ADFFA6E0FB6ABB60BB68DB68CF
:101BB000BB62BB6A1B697B62BB6ADB683B62BB6A58
:101BC0005B889BB218460DF0ABFC0346FB61BB6A19
:101BD0001B7803F00F039B00BB61BB685A69FB696C
:101BE0009A42C0F08480BB685B69132B7FD9BB6AC3
:101BF0001B781B09DBB2042B79D1BB69132B76D977
:101C0000BA68BB6910461946FEF7F2FF0346002B7F
:101C10006DD1FB685A6A7B6A9A4207D0FB68786A82
:101C2000194600F093F80346002B60D0BB685A6950
:101C3000FB699A4209D9BB685B69FA69D31A07F153
:101C400008021046194601F039F8BB6ADB889BB2DE
:101C500023F04003002B04D0BB68184600F050FF6F
:101C600049E0BB685B69B3F5205F04D9BB681846DF
:101C700000F046FF3FE0BA68BB6908331046002118
:101C80001A46002300F07CFD7861BB6907F1080269
:101C90001046194601F012F8FA68BB68796900919C
:101CA0001046396A7A6A02F03BF8BB6A5B7A012017
:101CB00000211A4601F07EFF38613B69002B0AD0F3
:101CC0003B695C69FA68BB68796900911046396ABA
:101CD0007A6AA0470FE0BB68184600F011FFFB6866
:101CE0001846032102227B69FFF784FB03E0BB68EF
:101CF000184600F005FF07F10C030748194600F0ED
:101D00007BF90346BB60BB68002B7FF43CAF00F05F
:101D1000ADFA3437BD4690BD4007001080B500AF26
:101D200000F096FA05E0084B1B680748194601F0D9
:101D3000C5F9054B1B68002BF5D1034B00225A60F7
:101D400000F094FA80BD00BF4007001080B485B059
:101D500000AF786039600023FB607B68B3F1FF3F20
:101D600002D07B68002B02D10123FB6037E03B6887
:101D7000002B20D11D4B1B683B6018E03B682433CF
:101D8000BB60BB685A697B689A4209D0BB689A6994
:101D90007B689A4204D0BB68DA687B689A4203D1B8
:101DA0000123FB6000BF1AE03B681B683B603B6897
:101DB000002BE3D113E03B682433BB60BB685A6956
:101DC0007B689A4209D0BB689A697B689A4204D0C2
:101DD000BB68DA687B689A4201D10123FB60FB682B
:101DE00018461437BD465DF8047B7047ECBA001006
:101DF00080B584B000AF78607868FFF763FDB860A5
:101E0000BB68002B03D14FF42053FB6002E0BB689A
:101E10001B69FB60FB683C3B23F00303FB60FB6832
:101E200018461037BD4680BD80B586B000AFF8605B
:101E3000B9607A603B603B68002B36D03B6A002B70
:101E400033D0BB68002B2DD1FB685B699B8803F006
:101E50000103002B26D07B68032B02D0042B0DD06E
:101E600019E03B6A042B02D006237B6120E03B682B
:101E70001B68DAB2FB6883F865200FE03B6A042B2D
:101E800002D006237B6113E03B681B68DAB2FB6873
:101E900083F8642002E009237B6109E000BF00BFF2
:101EA00000230DE006237B6102E006237B6100BF77
:101EB000FB687A69DA677869FEF772FF4FF0FF33E3
:101EC00018461837BD4680BD80B586B000AFF860B3
:101ED000B9607A603B603B68002B43D03B6A002BC3
:101EE00040D03B6A1B68002B3CD0BB68002B36D12E
:101EF000FB685B699B8803F00103002B2FD07B6894
:101F0000032B02D0042B11D022E03B6A1B68032B69
:101F100002D806237B6128E0FB6893F865301A46F7
:101F20003B681A603B6A04221A6014E03B6A1B6833
:101F3000032B02D806237B6117E0FB6893F864301B
:101F4000DBB25AB23B681A603B6A04221A6002E0B4
:101F500009237B6109E000BF00BF00230DE00623D9
:101F60007B6102E006237B6100BFFB687A69DA6768
:101F70007869FEF715FF4FF0FF3318461837BD4656
:101F800080BD00BF80B586B000AFF860B9607A60F0
:101F900000F05EF97B685A69FB685B681344B3F52F
:101FA000A05F00D920E00420002100F08FFB7861C1
:101FB0007B69002B00D117E07B69BA68DA60FB68A7
:101FC0005A687B685B691A44FB685A60786979686B
:101FD00001F022F87860FB681846796801F04EF845
:101FE00000F044F9002303E000F040F94FF0FF3324
:101FF00018461837BD4680BD80B584B000AF786004
:1020000039607B681B68BB60BB68002B1DD0BB6858
:102010001B68FB60BB68DA683B681A6000F018F95F
:10202000FB68002B06D07B685A68FB685B69D21A94
:102030007B685A60BB6800221A607B681846B968E2
:1020400001F03CF800F012F901E00023FB60FB68AE
:1020500018461037BD4680BD80B584B000AF7860AB
:102060001E4B1B68FB6032E0FB685A687B689A4233
:102070002AD1FB689B68002B05D0FB689B68FA6837
:10208000526910469847164B1B68002B08D0FB6816
:1020900001221A61FB689B695A1CFB689A6112E075
:1020A000FB6800221A61FB68DB68002B0BD0FB6821
:1020B000DB68FA68526910469847FB68DB695A1C6E
:1020C000FB68DA6106E005E0FB681B68FB60FB6803
:1020D000002BC9D11037BD4680BD00BF540700108A
:1020E0005007001080B586B000AFF860B9607A6024
:1020F0003B60F86839680CF007FC78617B69002B5D
:1021000006D1F868B9687A683B6A00F027F8786108
:102110007B6918461837BD4680BD00BF80B584B0C6
:1021200000AF786039600C4B1B68591C0A4A11607B
:10213000FB60F86800217A683B6800F00FF80346FE
:10214000B3F1FF3F02D14FF0FF3300E0FB681846C8
:102150001037BD4680BD00BF2800001080B586B096
:1021600000AFF860B9607A603B60202001F050F861
:1021700038613B69002B1ED03B69FA685A603B69A5
:10218000BA689A603B697A68DA600F4B1A683B69F3
:102190001A603B6900221A613B693A685A613B69DF
:1021A00000229A613B690022DA61074B3A691A60A2
:1021B00000237B6102E04FF0FF337B617B691846AF
:1021C0001837BD4680BD00BF5407001080B584B0ED
:1021D00000AF78601D4B1B68FB6008E0FB685A6825
:1021E0007B689A4200D105E0FB681B68FB60FB68D6
:1021F000002BF3D1FB68002B25D0F86800F0F8FF26
:10220000124B1B685A687B689A4205D10F4B1B68BA
:102210001A680E4B1A6016E00C4B1B68FB600EE050
:10222000FB681B685A687B689A4205D1FB681B688B
:102230001A68FB681A6006E0FB681B68FB60FB68B5
:102240001B68002BECD11037BD4680BD5407001031
:1022500080B400AF044B1B685A1C034B1A60BD4688
:102260005DF8047B704700BF5007001080B582B056
:1022700000AF164B1B685A1E144B1A60134B1B6899
:10228000002B1FD1124B1B687B6018E07B681B6919
:10229000002B11D07B6800221A617B68DB68002B61
:1022A00005D07B68DB687A685269104698477B687E
:1022B000DB695A1C7B68DA617B681B687B607B6822
:1022C000002BE3D10837BD4680BD00BF500700108A
:1022D0005407001080B584B000AF78607B68BB60A5
:1022E0001F4B1B68FB60FFF7B3FF31E0FB685A68C8
:1022F000BB689A4229D1FB689B68002B05D0FB681C
:102300009B68FA68526910469847164B1B68012B68
:1023100012D1FB6800221A61FB68DB68002B05D034
:10232000FB68DB68FA68526910469847FB68DB690E
:102330005A1CFB68DA610EE0FB6801221A61FB6837
:102340009B695A1CFB689A6105E0FB681B68FB608F
:10235000FB68002BCAD1FFF789FF1037BD4680BD4F
:10236000540700105007001080B400AF044B002247
:102370001A60044B00221A60BD465DF8047B70476A
:10238000500700105407001080B489B000AFF86007
:10239000B9601346FB710023FB61FB79062B01D862
:1023A0000723FB71FB68002B2AD0FB7903F108029D
:1023B000BB689A4224D2FA79FB68134403F10902FC
:1023C000FB79DB431340BB61FA68BB69D21ABB6877
:1023D00013447B61FB68FB61FB790133DAB2FB6973
:1023E0001A71BB693B61FB691B797A69B2FBF3F235
:1023F0003B691A603B693A695A60FB693A691A603D
:10240000FB6918462437BD465DF8047B704700BF62
:1024100080B485B000AF78607B68FB60FB68002209
:102420001A601437BD465DF8047B704780B586B0EE
:1024300000AF786039607B683B613B68002B63D0FC
:10244000FFF706FF3A683B691B79D31AFB603B69CB
:102450001B687B6110E07B695A687B699A4208D8E7
:10246000FA687B699A4210D87B695A68FB689A427D
:102470000BD87B695B687B61FA687B699A42EAD911
:102480007B695A68FB689A42E5D9FB681B683A6920
:10249000127902FB03F2FB6813441A467B695B68FE
:1024A0009A420DD1FB681A687B695B681B681A4405
:1024B000FB681A607B695B685A68FB685A6003E0D6
:1024C0007B695A68FB685A607B691B683A691279B4
:1024D00002FB03F27B6913441A46FB689A420BD154
:1024E0007B691A68FB681B681A447B691A60FB6881
:1024F0005A687B695A6002E07B69FA685A603B69F6
:102500007A691A60FFF7B2FE1837BD4680BD00BF7A
:1025100080B58AB000AF786039607B683B6100238A
:10252000FB610023BB61FFF793FE3B691B791A46F1
:102530003B6813445A1E3B691B79B2FBF3F301332A
:10254000FB603B691B683B623B6ABB613B6A5B6843
:102550007B627B6A1A68FB689A420FD3FB69002B87
:1025600008D0FB69002B09D0FB691A687B6A1B68DD
:102570009A4203D93B6ABB617B6AFB613B691A687B
:102580007B6A9A4204D100BFFB69002B2CD005E086
:102590007B6A3B627B6A5B687B62DAE7FB691A688D
:1025A000FB689A4204D1FB695A68BB695A6011E022
:1025B000FB691A68FB68D21AFB691A60FB691B6821
:1025C0003A69127902FB03F2FB691344FB61FB6970
:1025D000FA681A603B69BA691A603B691B791A4646
:1025E000FB6913447B6101E000237B61FFF73EFE42
:1025F0007B6918462837BD4680BD00BF80B586B0D0
:1026000000AF78607B68FB6000237B61FFF720FEF2
:10261000FB681B683B613B69002B01D100231AE07A
:102620003B691B687A6913447B6107E03B695B681F
:102630003B613B691B687A6913447B613B695A685B
:10264000FB681B689A42F1D1FFF710FEFB681B790B
:102650007A6902FB03F318461837BD4680BD00BFF8
:1026600080B586B000AF78607B68FB6000237B613B
:10267000FFF7EEFDFB681B683B613B69002B01D156
:1026800000231FE03B691B687B610AE03B695B68D4
:102690003B613B691A687B699A4202D93B691B68B6
:1026A0007B613B695B68002B05D03B695A68FB681E
:1026B0001B689A42EAD1FFF7D9FDFB681B797A695A
:1026C00002FB03F318461837BD4680BD80B584B0C1
:1026D00000AF786039607B68002B01DA00234AE0A4
:1026E0001C2000F051FDF860FB68002B08D13B680E
:1026F000002B05D001F0ACFA1C2000F045FDF8607D
:10270000FB68002B01D1002335E07B6804331846B9
:1027100000F03AFDB860BB68002B0AD13B68002B83
:1027200007D001F095FA7B680433184600F02CFDC1
:10273000B860BB68002B04D1F86800F015FD0023D9
:1027400019E0FB6800221A60FB6800225A60BB682F
:1027500001221A60FB68BA689A60BB681A1DFB68A0
:10276000DA607A68FB681A617A68FB685A61FB680C
:1027700000229A61FB6818461037BD4680BD00BF35
:1027800080B58AB000AFF860B9607A603B60002322
:10279000BB6100237B61FB68FB61FB691A69BB6954
:1027A0001344BB61FB691B68FB61FB69002BF4D11F
:1027B0007B68B3F1FF3F06D1BA69BB68D31ABB612E
:1027C000BB697B600CE0BA69BB68D21A7B689A422D
:1027D00004DBBA69BB68D31A002B01DA0023CBE013
:1027E000BB68002B01DA0023C6E0FB68FB611C20FC
:1027F00000F0CAFC78627B6A002B08D13B68002B92
:1028000005D001F025FA1C2000F0BEFC78627B6A3E
:10281000002B01D10023AFE07B6A3B627B6A002280
:102820005A607A687B6A5A61FB689A697B6A9A6126
:10283000FB691A69BB689A4202D9BB687B6113E0E5
:1028400002E0FB691B68FB61FB691A697B69134441
:102850007B617A69BB689A42F3DDFB691A69BB68E0
:102860001A447B69D31A7B61FB699A687B6A9A6018
:10287000FB69DA687B691A447B6ADA607B6A9B6869
:102880007A6A9268126801321A607A69FB691B6978
:10289000D21A7B681344BB61BB69002B03DC7A68E6
:1028A0007B6A1A6164E0FB691A697B69D21A7B6AE8
:1028B0001A611C2000F068FC02467B6A1A607B6A81
:1028C0001B68002B0AD13B68002B07D001F0C0F930
:1028D0001C2000F059FC02467B6A1A607B6A1B6868
:1028E000002B13D1386A00F0E5F8386207E03B6A44
:1028F0001B68FB61386A00F037FCFB693B627B6A4E
:102900001A683B6A9A42F2D1002335E07B6A1B6861
:102910007B627B6A00225A60FB691B68FB61FB6972
:102920009A687B6A9A60FB699A697B6A9A617B6A9A
:102930009B687A6A9268126801321A60FB69DA68E9
:102940007B6ADA60BA69FB691B69D31ABB61BB6930
:10295000002B06DAFB691A69BB691A447B6A1A61A3
:1029600003E0FB691A697B6A1A61BB69002BA0DC72
:102970007B6A00221A603B6A18462837BD4680BD34
:1029800080B586B000AFF860B9607A60B8687968E1
:10299000FFF79CFE78617B69002B07D07B69DA68C2
:1029A000BB681046F9681A4602F074FF7B69184646
:1029B0001837BD4680BD00BF80B58AB000AFF86053
:1029C000B9607A603B600023FB610023BB613B6818
:1029D0007B62FB683B623B6A1A69FB691344FB61DB
:1029E0003B6A1B683B623B6A002BF4D17B68B3F106
:1029F000FF3F06D1FA69BB68D31AFB61FB697B60B4
:102A00000BE0FA69BB68D21A7B689A4204DBFA6968
:102A1000BB68D31A002B00DA49E0BB68002B02DB4D
:102A20007B68002B00D142E0FB683B623B6A1A697D
:102A3000BB689A4202D9BB68BB6113E002E03B6A03
:102A40001B683B623B6A1A69BB691344BB61BA6984
:102A5000BB689A42F3DD3B6A1A69BB681A44BB69DA
:102A6000D31ABB617B68FB613B6A1A69BB69D21AE6
:102A7000FB699A4238BF13467B61FA697B69D31AB6
:102A8000FB613B6ADA68BB691A447B69786A114664
:102A90001A4602F0FFFE0023BB617B697A6A134489
:102AA0007B623B6A1B683B62FB69002BDCDC2837DE
:102AB000BD4680BD80B584B000AF78607B68002BD8
:102AC00019D07B689B681B68012B05D17B689B68CC
:102AD000184600F049FB06E07B689B687A689268BC
:102AE0001268013A1A607B681B68FB60786800F026
:102AF0003BFBFB6800E0002318461037BD4680BD55
:102B000080B584B000AF786019E07B681B68FB601B
:102B10007B689B681B68012B05D17B689B68184606
:102B200000F022FB06E07B689B687A689268126876
:102B3000013A1A60786800F017FBFB687B607B68DD
:102B4000002BE2D11037BD4680BD00BF80B588B0F4
:102B500000AF786039600023FB617B685A693B688D
:102B60009A4201D20023A5E07B681A693B689A4229
:102B700005D23B68002B02DD7B68002B01D17B680E
:102B800098E07B687B617B691B69FA691344FB6190
:102B900007E07B691B687B617B691B69FA691344E9
:102BA000FB613A68FB699A4202D97B69002BF0D13C
:102BB0003B680433184600F0E7FAF860FB68002B26
:102BC00001D1002376E0FB6801221A60FB68191D21
:102BD0007B68DA687B681B69084611461A4602F072
:102BE00059FE7B681B69BB617B689B681B68012B76
:102BF00005D17B689B68184600F0B6FA06E07B6852
:102C00009B687A6892681268013A1A607B68FA6871
:102C10009A60FB681A1D7B68DA607B681B683B6101
:102C200019E07B68DA68BB69D1183B69DA683B69EF
:102C30001B69084611461A4602F02CFE3A697B6968
:102C40009A4208D03B691B69BA691344BB61386971
:102C5000FFF730FF38613A697B699A42E1D13A68FF
:102C6000BB69D31AFB617B68DA68BB691A443B69AC
:102C7000DB6810461946FA6902F00CFE3B691A69D6
:102C8000FB69D21A3B691A613B691B69002B04D1AD
:102C90003869FFF70FFF386105E03B69DA68FB69C7
:102CA0001A443B69DA607B683A691A603A687B6863
:102CB0001A617B6818462037BD4680BD80B588B054
:102CC00000AF786039603B68002B00D18FE07B68F3
:102CD0001B683B617B681B68BB61BB69FB61BB69AF
:102CE0005A693B68002BB8BF5B429A4202D3BB696A
:102CF000002B00D17BE0BB691B697B61BB695B6911
:102D0000FB603B68002B2DDD0CE0BB691A687B681B
:102D10001A60B869FFF7CEFEB861BB691A697B69B2
:102D200013447B61BB69002B03D03A687B699A42EC
:102D3000EBDABB69002B4BD0BB69DA68BB69196958
:102D400038687B69C31A0B441A44BB69DA607A6934
:102D50003B68D31A1A46BB691A613B699A69BB6919
:102D60009A6135E007E0BB691B68BB61BB691A6902
:102D70007B6913447B61BB69002B05D0FA683B6813
:102D80001A447B699A42EEDCBB69002B20D0BB69F8
:102D90001A693968FB6819447B69CB1A1A44BB6904
:102DA0001A6107E0BB691B681846FFF783FE0246FD
:102DB000BB691A60BB691B68002BF3D1BB691B6937
:102DC000002B03D1B869FFF775FEF861FB69BB61A1
:102DD000BB69002B08D03B68002BB8BF5B42FA6888
:102DE000D31A1A46BB695A617B68BA691A602037E0
:102DF000BD4680BD80B588B000AFF860B9607A602C
:102E00007B68002B01D1002301E1FB681B683B615B
:102E10003B695A697968BB680B449A4202D33B69A3
:102E2000002B01D10023F2E0BB68002B0AD107F18F
:102E3000100318467968FFF741FF3A69FB681A608A
:102E40003B69E4E03B697B613B69FB613B691B6972
:102E5000BB6110E03B691B683B613B691A69BB6958
:102E60001344BB613B69002B05D0BA68BB699A4229
:102E700001DB3B69FB613B69002B03D0BA68BB698E
:102E80009A42E7DABA693B691B69D21ABB689A426F
:102E900011D13B697A6952695A61FB6918467968B0
:102EA000FFF70CFF7B695A697B68D21A7B695A610C
:102EB000FB681B68ABE0BA69BB68D21A7B689A42B0
:102EC00070DD7B695A697B68D21A7B695A613B69FC
:102ED0009B681B68012B24D13B69DA683B6919693F
:102EE000BB69C91ABB680B44D1183B69DA683B69F6
:102EF0001869BB69C01ABB6818447B6803441A444C
:102F0000B869BB68C01A7B68C31A084611461A46DE
:102F100002F0C0FC3B693A6911697A688A1A1A6141
:102F20003DE0BA69BB68D21A7B68D31A1846002103
:102F3000FFF7CCFB78617B69002B0AD1FB681B682B
:102F40003B613B693A6951697A680A445A610023D6
:102F50005DE07B69D9683B69DA683B691869BB69E0
:102F6000C01ABB6818447B6803441A44B869BB683C
:102F7000C01A7B68C31A084611461A4602F08AFC3A
:102F80003B691A687B691A603B697A691A603B6918
:102F90003A691169B868BA69821A0A441A61FB6809
:102FA0001B6834E0BA69BB68D21A7B689A420ED1BA
:102FB0003B693A6911697A688A1A1A617B695A69A8
:102FC0007B68D21A7B695A61FB681B681FE03B690A
:102FD0003A691169B868BA69821A0A441A613B6988
:102FE0001B687A6952695A613B691A46B968BB69BC
:102FF000C91A7B680B4410461946FFF75FFE7B69D0
:103000005A697B68D21A7B695A61FB681B6818464B
:103010002037BD4680BD00BF80B485B000AF78606A
:1030200039607B68002B01D13B6820E03B68002BB6
:1030300001D17B681BE07B68FB6002E07B681B685A
:103040007B607B681B68002BF8D17B683A681A604C
:10305000FB689A693B689B691A43FB689A61FB6845
:103060005A693B685B691A44FB685A61FB681846F9
:103070001437BD465DF8047B704700BF80B485B04F
:1030800000AF786039607B681B68FB60FB68002BD1
:1030900003D17B683A681A600AE002E0FB685B686B
:1030A000FB60FB685B68002BF8D1FB683A685A60EC
:1030B0001437BD465DF8047B704700BF80B584B00F
:1030C00000AF786039607B68002B2CD07B681B6870
:1030D000002B28D07B681B68FB60FA683B689A422B
:1030E00009D1FB685B68BB60F868FFF709FD7B6886
:1030F000BA681A6017E002E0FB685B68FB60FB6877
:103100005A683B689A4202D0FB68002BF4D1FB68F6
:103110005B685B68BB60FB685B681846FFF7F0FCA8
:10312000FB68BA685A601037BD4680BD80B584B070
:1031300000AF78603960786839680722FFF724F9B2
:103140000246084B1A60074B1B68002B02D0002375
:10315000FB6002E04FF0FF33FB60FB68184610375E
:10316000BD4680BD5807001080B582B000AF7860C2
:10317000044B1B6818467968FFF758F90837BD46B5
:1031800080BD00BF5807001080B582B000AF7860E6
:10319000054B1B6818467968FFF7BAF903461846CD
:1031A0000837BD4680BD00BF5807001080B500AF8E
:1031B000034B1B681846FFF721FA0346184680BDEB
:1031C0005807001080B500AF034B1B681846FFF787
:1031D00047FA0346184680BD5807001080B500AF77
:1031E000024B1B681846FFF713F980BD5807001003
:1031F00080B582B000AF7860044B1B6818467968D0
:10320000FFF714F90837BD4680BD00BF580700100E
:1032100080B582B000AF7860054B1B6818467968AE
:10322000FFF776F9034618460837BD4680BD00BF54
:103230005807001080B500AF034B1B681846FFF716
:10324000DDF90346184680BD5807001080B500AF71
:10325000034B1B681846FFF703FA0346184680BD68
:103260005807001080B500AF024B1B681846FFF7E7
:10327000CFF880BD5807001080B584B000AF0023A0
:10328000FB60FEF7E5FF1A4B00221A60184B1A6824
:10329000184B1A60184A3B1D1068186092889A8073
:1032A0003B1D16481946FDF7B3FD3B1D1448194652
:1032B000062200F0F1F8F860FB68B3F1FF3F0FD091
:1032C0000F4800F099F90E480E4900F0A7F90C4894
:1032D0004FF6FF7100F014FA0948002100F034FAAB
:1032E000FEF7C4FFFB6818461037BD4680BD00BF1F
:1032F0005C070010ECBA0010743F0100603F010051
:1033000084020010C0A8001480B582B000AF002075
:1033100000F06AFB0B4B1B687B6005E0786800F0EF
:103320003DF97B681B687B607B68002BF6D1064B00
:1033300000221A60044B1A68024B1A600837BD4617
:1033400080BD00BFECBA00105C07001080B582B0F1
:1033500000AFFEF77DFF0C4B1B687B600CE07B68C9
:103360009B699B69002B04D07B689B699B6978688B
:1033700098477B681B687B607B68002BEFD1FEF76A
:1033800075FF0837BD4680BDECBA001080B584B02B
:1033900000AF78600023BB607B68002B16D00E4B1B
:1033A0001B68FB600FE0FB68083378681946082249
:1033B00002F00AFE0346002B02D1FB68BB6005E069
:1033C000FB681B68FB60FB68002BECD1BB681846F0
:1033D0001037BD4680BD00BFECBA001080B485B088
:1033E00000AF78600023FB600C4B1B68BB600BE0F8
:1033F0007B68002B02D1BB68FB6008E0BB681B68E0
:10340000BB607B68013B7B60BB68002BF0D1FB6835
:1034100018461437BD465DF8047B7047ECBA0010BF
:1034200080B485B000AF78600023FB600C4B1B6854
:10343000BB600AE0BB685A6A7B689A4202D1BB68EB
:10344000FB6005E0BB681B68BB60BB68002BF1D16B
:10345000FB6818461437BD465DF8047B704700BF13
:10346000ECBA001080B584B000AF78600023FB6038
:103470007B68002B0AD07B681B88012B06D17B68F8
:103480005B681846FFF7CCFFF86000BFFB68184682
:103490001037BD4680BD00BF80B586B000AFF86074
:1034A000B9607A6000237B61FB68002B65D0FB6804
:1034B0009B69002B61D0FEF7CBFE324B1A68FB688C
:1034C0001A60FB681B68002B03D0FB681B68FA6856
:1034D0005A60FB6800225A602A4BFA681A60F86842
:1034E00000F0A2FAFB6800221A62FB689B699B68E5
:1034F000002B18D0FB689B699B68F8689847786137
:103500007B69002B0FD1F868B9687A6800F0E8F998
:10351000FB689B691B78012B00D004E0F868FDF77D
:103520003BFD786100BFFB6803F10802FB68DB69C3
:10353000154811461A4608F075FDFB685A6AFB6883
:103540001B6C124811461A4608F06CFDFB68DA6ADB
:10355000FB685B6C0E4811461A4608F063FDFB6879
:103560001B690C48194608F05DFDFB685B690A4859
:10357000194608F057FDFEF779FE7B6918461837A3
:10358000BD4680BDECBA00107C3F0100A03F0100A9
:10359000B43F0100D03F0100E03F010080B582B0A0
:1035A00000AF78607B68002B20D07B689B69DB686C
:1035B000002B04D07B689B69DB68786898477B6840
:1035C0005B68002B04D17B681A680A4B1A6004E020
:1035D0007B685B687A6812681A607B681B68002BDE
:1035E00004D07B681B687A6852685A600837BD4609
:1035F00080BD00BFECBA001080B483B000AF78602B
:103600007B68002B02D0044B7A681A600C37BD46E9
:103610005DF8047B704700BF5C07001080B584B084
:1036200000AF786039607B68FB607B68002B63D0FB
:10363000FB683A685A62FB6800225A64FB685B6A5E
:1036400003F08003002B0AD1FB685B6B002B02D1D7
:10365000FB68FF225A63FB68FF22DA6224E0FB6802
:103660005B6A03F0C003802B0CD1FB685B6B002B03
:1036700003D1FB684FF6FF725A63FB684FF6FF7287
:10368000DA6211E0FB685B6A03F0E003C02B0BD148
:10369000FB685B6B002B03D1FB686FF07F425A63C2
:1036A000FB686FF07F42DA62FB685A6AFB68DB6A8C
:1036B0001A40FB689A62FB685A6AFB685B6B1A40A7
:1036C000FB681A63FB685A6AFB68DB6ADB431A43D0
:1036D000FB689A63FB685A6AFB685B6BDB431A43BF
:1036E000FB68DA63FB689B695B69002B04D0FB68AD
:1036F0009B695B69F86898471037BD4680BD00BF7D
:1037000080B485B000AF786039607B68FB60FB688F
:10371000002B14D0FB683A685A63FB6800225A6495
:10372000FB685A6AFB685B6B1A40FB681A63FB68AC
:103730005A6AFB685B6BDB431A43FB68DA63143736
:10374000BD465DF8047B704780B485B000AF7860FB
:1037500039607B68FB60FB68002B05D0FB683A682A
:103760001A64FB6800225A641437BD465DF8047B76
:10377000704700BF80B400AF034B1B681846BD46BE
:103780005DF8047B704700BF5C07001080B485B013
:1037900000AF78607B68FB60FB68002B02D0FB68A1
:1037A0005B6A00E0002318461437BD465DF8047BD1
:1037B000704700BF80B485B000AF78607B68FB6065
:1037C000FB68002B02D0FB685B6B00E0002318460F
:1037D0001437BD465DF8047B704700BF80B485B0E8
:1037E00000AF78607B68FB60FB68002B02D0FB6851
:1037F0001B6C00E0002318461437BD465DF8047BBF
:10380000704700BF80B586B000AFF860B96013465E
:10381000FB71FB687B617B69002B08D07B6903F13E
:103820000802FB79B86811461A4602F0EDFA18371B
:10383000BD4680BD80B485B000AF78607B68FB601A
:10384000FB68002B02D0FB685B6C00E0002318468D
:103850001437BD465DF8047B704700BF80B485B067
:1038600000AF78607B68FB60FB68002B02D0FB68D0
:1038700001225A641437BD465DF8047B704700BFCF
:1038800080B586B000AFF860B9607A60FB683B61D4
:103890003B69002B1CD0BB68002B19D07B68002B28
:1038A00016D03B699B69002B12D03B699B695A6813
:1038B0007B689A420CD83B699B69DB69002B07D077
:1038C0003B699B69DB693869B9689847786102E0B0
:1038D0004FF0FF337B617B6918461837BD4680BDCA
:1038E00080B586B000AFF860B9607A60FB683B6174
:1038F0003B69002B19D0BB68002B16D03B699B6934
:10390000002B12D03B699B695A687B689A420CD1A4
:103910003B699B691B6A002B07D03B699B691B6A4B
:103920003869B9689847786102E04FF0FF337B61EE
:103930007B6918461837BD4680BD00BF80B485B08E
:1039400000AF78607B68BB60BB68002B04D0BB68AD
:103950009B691B78FB7301E00023FB73FB7B18461C
:103960001437BD465DF8047B704700BF80B584B056
:1039700000AF78607B68BB60BB68002B0BD0BB6876
:103980009B695B6A002B06D0BB689B695B6AB86861
:103990009847F86001E00123FB60FB681846103788
:1039A000BD4680BD80B584B000AF786039607B686B
:1039B000BB60BB68002B0FD03B68002B0CD0BB68F2
:1039C0009B699B6A002B07D0BB689B699B6AB868A0
:1039D00039689847F86002E04FF0FF33FB60FB68FE
:1039E00018461037BD4680BD80B483B000AF786004
:1039F000034B7A681A600C37BD465DF8047B70474C
:103A00006007001080B582B000AF7860054B1B687E
:103A1000002B03D0034B1B68786898470837BD46D6
:103A200080BD00BF6007001080B487B000AF786031
:103A30000123FB6001237B610023FB600F4B1B68AC
:103A40003B610DE03B69DA697B699A4205D101234C
:103A5000FB607B6901337B6105E03B691B683B616F
:103A60003B69002BEED1FB68012BE5D07B687A69BE
:103A7000DA611C37BD465DF8047B7047ECBA001074
:103A800080B485B000AF78600023FB607B68BB60CA
:103A9000BB68002B02D0BB68DB69FB60FB68184683
:103AA0001437BD465DF8047B704700BF80B485B015
:103AB00000AF78600023FB600C4B1B68BB600AE022
:103AC000BB68DA697B689A4202D1BB68FB6005E09B
:103AD000BB681B68BB60BB68002BF1D1FB68184654
:103AE0001437BD465DF8047B704700BFECBA001088
:103AF00080B582B000AF00233B60FEF7A9FB002336
:103B00007B601DE0184B7A6853F8223000221A605F
:103B1000154B7A6853F82230DB68002B0DD0124B1E
:103B20007A6853F82230DB6898470346B3F1FF3FC9
:103B300003D14FF0FF333B600FE07B6801337B60C4
:103B40007B68032BDED9FDF799FE0346B3F1FF3FF7
:103B500003D14FF0FF333B6000BFFEF787FB3B68AC
:103B600018460837BD4680BDF03F010080B582B0E1
:103B700000AFFEF76DFB00237B600FE00C4B7A6813
:103B800053F822301B69002B05D0094B7A6853F893
:103B900022301B6998477B6801337B607B68032B6D
:103BA000ECD9FDF789FEFEF761FB0837BD4680BD05
:103BB000F03F010080B485B000AF0B463A6002468A
:103BC000FA807B710023FB6036E0204BFA6853F8E3
:103BD00022309A88FB8813409BB2002B29D01B4BC4
:103BE000FA6853F822309B797A799A4211D13B686E
:103BF000002B19D0154BFA6853F822309B68002B24
:103C000012D0124BFA6853F822309A683B689A42F5
:103C10000AD07B79002B0CD10C4BFA6853F8223078
:103C20009A683B689A4204D1084BFA6853F82230EC
:103C300006E0FB680133FB60FB68032BC5D900235A
:103C400018461437BD465DF8047B7047F03F01000D
:103C500080B582B000AF00237B600FE00C4B7A6828
:103C600053F82230DB69002B05D0094B7A6853F8F2
:103C70002230DB6998477B6801337B607B68032BCC
:103C8000ECD9FEF74BF8FFF761FB0837BD4680BD66
:103C9000F03F010080B500AF05E0054B1B6804480C
:103CA000194600F043FB024B1B68002BF5D180BD89
:103CB0002C000010B0B58CB006AFF860B9603B6066
:103CC0001346FB7100237B6100233B61BB681B88AB
:103CD000012B1FD1FB685968BB685A683B685D7847
:103CE0003B681C783B681B6A03F00403002BD4BFBD
:103CF00000230123DBB21846FB7900950194BC6ACE
:103D00000294002403940490002005903869FDF784
:103D100015FE78617B6918461837BD46B0BD00BFF7
:103D200080B58CB002AFF860B9607A603B603B6BE5
:103D3000DB687B6207F11C031846082101F066FF6F
:103D40000123BB8307F11C03BA685A6007F114030F
:103D50001846082101F05AFF0123BB8207F1140322
:103D60007A685A607B6A5B7A194607F11C0207F190
:103D700014030091F86811461A463B6800F004F8F5
:103D80002837BD4680BD00BF80B588B000AFF86061
:103D9000B9607A603B60FB68002B00F0BF803B6835
:103DA000002B00F0BB803B685B69002B00F0B68005
:103DB0007868F96801F03AFC0346002B05D1786871
:103DC00001F014FC0346002B7CD00023BB61554B53
:103DD0001B68FB614EE0FB691A69BB6A9A4200D01E
:103DE00045E0FB695C33184601F03CFC0346002BC0
:103DF00009D1FB695C331846796801F051FC034630
:103E0000002B00D133E0FB695433184601F02AFC43
:103E10000346002B09D1FB6954331846B96801F0F9
:103E20003FFC0346002B00D121E0BB69002B1CD0D6
:103E3000BB691B6C002B18D1386800214FF0FF3292
:103E40000023FEF79DFC78617B69002B0DD0BB69D8
:103E5000343318467969BA6801F0D4FA0346B3F1ED
:103E6000FF3F02D17869FEF74BFEFB69BB61FB693E
:103E70001B68FB61FB69002BADD1BB69002B00D136
:103E80004CE0BB691B6C002B00D047E03868002178
:103E90004FF0FF320023FEF773FC78617B69002B43
:103EA0000ED0BB69343318467969BA6801F0AAFAB2
:103EB0000346B3F1FF3F04D17869FEF721FE2DE000
:103EC0002CE02BE0174B1B6818467968BA68BB6A70
:103ED00000F09AFAF861FB69002B1FD0FB691B6C9C
:103EE000002B00D01AE0386800214FF0FF32002389
:103EF000FEF746FC78617B69002B0ED0FB693433FA
:103F000018467969BA6801F07DFA0346B3F1FF3FBC
:103F100004D17869FEF7F4FD00E000BF2037BD460C
:103F200080BD00BF2C00001080B483B000AF78606B
:103F30007B68402283F864207B68002283F8652038
:103F40007B684FF400629A647B684FF400629A6366
:103F5000002318460C37BD465DF8047B704700BF50
:103F600080B582B000AF7860FEF772F905487968D5
:103F700000F0DCF9FEF77AF9002318460837BD4651
:103F800080BD00BF2C00001080B582B000AF78600B
:103F90003960FEF75DF93B6803F00103002B07D0A1
:103FA0007B6801221A647B683433184601F0D6F925
:103FB0003B6803F00203002B02D07B6801221A65E4
:103FC000FEF754F9002318460837BD4680BD00BFF0
:103FD00080B582B000AF78603960FEF739F97B6850
:103FE0003A6854331068516803C37B680022A3F811
:103FF0005E207B680022A3F856207B6802221A7399
:104000007B683433184601F0A9F9FEF72FF9002335
:1040100018460837BD4680BD80B58AB002AFF8604B
:10402000B9607A603B600023FB6100237B617A68A2
:10403000FB689B6C9A4202D90823FB6147E0BB6A8C
:10404000002B02D0BB6ABB6102E0FB685433BB614A
:10405000B86879680022FEF793FC38613B69002B51
:1040600002D10323FB6132E03B6803F00403002B21
:104070000BD0FB68D3F884307B61FB68D3F88430C5
:1040800043F00402FB68C3F88420FB6803F15C0181
:10409000FB681B69DAB2FB68643338690090084634
:1040A000B969FFF707FEF8613B6803F00403002BD2
:1040B00003D0FB687A69C3F88420FB69002B06D122
:1040C000FB68D3F88030002B01D17B6805E0F868ED
:1040D000F96900F05BF84FF0FF3318462037BD4612
:1040E00080BD00BF80B58AB002AFF860B9607A6069
:1040F0003B600023FB613B6803F00103002B02D00F
:104100000B23FB612EE0FB6803F134023B6803F0F4
:104110000203002B14BF00230123DBB2194607F171
:10412000100300911046B9687A6801F0E5F9B861AA
:10413000BB69B3F1FF3F02D10823FB6112E0FB69C9
:10414000002B0FD1FB68D3F88030002B0AD1BB6A5B
:10415000002B05D007F110031846B96A01F0EAFAFE
:10416000BB6905E0F868F96900F010F84FF0FF331B
:1041700018462037BD4680BD80B500AF02482821D3
:1041800001F044FD80BD00BF6807001080B582B01B
:1041900000AF786039607B68D3F88030002B07D09F
:1041A0007B68D3F880303B607B680022C3F88020B6
:1041B0007B683A68DA673868FCF7F2FD0837BD4675
:1041C00080BD00BF80B582B000AF78603960FEF777
:1041D0003FF87B681A683B681A603B681B68002BD5
:1041E00003D03B681B683A685A603B6800225A60FB
:1041F0007B683A681A60FEF739F80837BD4680BD1B
:1042000080B582B000AF78603960FEF721F83B6876
:104210005B68002B04D13B681A687B681A6004E075
:104220003B685B683A6812681A603B681B68002B41
:1042300004D03B681B683A6852685A60FEF716F86B
:104240000837BD4680BD00BF80B582B000AF4FF0DB
:10425000FF333B60FDF7FCFF00237B6011E00E4B5A
:104260007A6853F82230002B08D10B4B7A684FF054
:10427000FF3143F822107B683B6005E07B68013327
:104280007B607B68092BEADDFDF7F0FF3B68184691
:104290000837BD4680BD00BF6807001080B483B0FA
:1042A00000AF78603960064B7A68396843F82210AD
:1042B0003B687A689A600C37BD465DF8047B7047AE
:1042C0006807001080B483B000AF7860044B7A6850
:1042D000002143F822100C37BD465DF8047B70477F
:1042E0006807001080B485B000AF78600023FB60E1
:1042F0000C4B1B68002B0ED07B68002B0BDB7B6804
:10430000B3F1FF3F07D07B68092B04DC064B7A68CA
:1043100053F82230FB60FB6818461437BD465DF841
:10432000047B7047640700106807001080B582B0F6
:1043300000AF78603960FDF78BFF78683968FFF768
:104340005FFF3B683433184601F008F83B6844339C
:10435000184601F003F83868FEF74AFFFDF786FFBC
:104360000837BD4680BD00BF80B586B000AFF8609D
:10437000B9607A603B60FB687B613CE07B69B3F8C5
:104380005E20BB685B889A4232D1B86801F06AF956
:104390000346002B02D03B68002B08D17B695C33BD
:1043A0001846B96801F07CF90346002B20D07B68E1
:1043B000002B02D13B68002B08D17B69543318468F
:1043C000796801F06DF90346002B11D07B68002B52
:1043D00002D13B68002B09D17B68002B08D07B6998
:1043E000B3F856207B685B889A4201D1012306E02E
:1043F0007B691B687B617B69002BBFD1002318465A
:104400001837BD4680BD00BF80B588B000AFF860EA
:10441000B9607A603B600023BB6103237B61FB686A
:10442000FB616FE0FB691A693B689A4200D066E065
:10443000FB69B3F85E20BB685B889A4200D05EE0FF
:1044400000233B61FB695C33184601F00BF903461E
:10445000002B13D1B86801F005F90346002B03D0F7
:104460003B6901333B6112E0FB695C331846B96874
:1044700001F016F90346002B09D140E0B86801F0BD
:10448000F1F80346002B02D13B6901333B61FB6924
:104490005433184601F0E6F80346002B1AD1786829
:1044A00001F0E0F80346002B03D03B6901333B6188
:1044B00019E0FB6954331846796801F0F1F80346B6
:1044C000002B06D0FB69B3F856207B685B889A42C4
:1044D00009D014E0786801F0C5F80346002B02D13A
:1044E0003B6901333B613A697B699A4207DAFB69B0
:1044F000BB613B697B617B69002B00D105E0FB69F7
:104500001B68FB61FB69002B8CD1BB691846203707
:10451000BD4680BD80B586B000AF786039601A4B6B
:104520001B88FB823A6807F10C031068516803C3CB
:10453000FDF78EFEFB8A0133FB82FB8AB3F5806FA9
:1045400004D9FA8A41F288339A4202D940F20143EF
:10455000FB82FB8A18460AF0E3FF0346FB8107F162
:104560000C037868194600220123FFF7FDFE03467D
:10457000002BDFD1044BFA8A1A80FDF777FEFB8906
:1045800018461837BD4680BD5000001080B584B075
:1045900000AF78608C20FEF73BFEF860FB68002BD4
:1045A00032D0F86879688C2201F074F9FB68002237
:1045B0001A60FB6800225A60FB684FF0FF329A6075
:1045C000FB6800221A73FB6800229A61FB680022D4
:1045D0001A63FB680022DA61FB6800225A62FB68FA
:1045E00000225A63FB680022DA63FB6800225A64E7
:1045F000FB680022DA64FB680022DA67FB680022AD
:10460000C3F88020FB6800E0002318461037BD4641
:1046100080BD00BF80B586B000AF0B463A60024651
:10462000FA807B7100237B613A4B1B68002B02D11F
:1046300019237B6164E0FFF707FE38613B69B3F142
:10464000FF3F02D102237B615AE0FA887B79104652
:1046500019463A68FFF7AEFAF860FB68002B02D102
:104660000A237B6149E08C20FEF7D2FDB860BB686D
:10467000002B02D103237B613FE0B8688C2101F05D
:10468000C5FA3869B968FFF709FEBB68FA685A616C
:10469000BB68FA88A3F85C20BB6800221A73BB6869
:1046A0003A681A61BB681B69002B03D1FB689A68E2
:1046B000BB681A61BB68FA88A3F85420FB681846E7
:1046C000B968FFF77FFDFB681B6A5B68002B12D09F
:1046D000FB681B6A5B68B86898470346B3F1FF3F05
:1046E00009D1BB685B691846B968FFF71FFEFCF784
:1046F0004BFB786101E03B6907E03869FFF7E2FDB9
:104700007869FCF74DFB4FF0FF3318461837BD466C
:1047100080BD00BF6407001080B58CB000AFF860AA
:10472000B9607A600023FB62F868FFF7DBFD78620E
:104730007B6A002B00F0A4807B6A1B7B032B02D1D9
:104740000B23FB62A1E07B6A5B691B6A1B68002B81
:104750000DD07B6A1B7B022B02D11323FB6294E0FA
:104760007B6A1B7B012B02D11623FB628DE07B68E9
:10477000B868194600F014FFF862FB6A002B00D0FD
:1047800083E0BA6807F118031068516803C307F1A2
:104790001803184600F066FF0346002B02D00723DB
:1047A000FB6272E07B8B002B07D17B6A5B699B7994
:1047B000032B02D00F23FB6267E07A6A07F1100334
:1047C0005C3292E8030083E8030007F11003184607
:1047D00000F048FF0346002B15D03B8A012B12D175
:1047E00007F118035B681846FDF76CF838623B6AFE
:1047F000002B02D11023FB6247E007F110033A6A55
:10480000526A5A6000BF7B8A002B0AD17B6A5B69BF
:104810001A6807F1100310461946FFF77BFE03469E
:104820007B827B6A5B69196807F1100207F1180344
:10483000084611461A460123FFF796FD0346002B52
:1048400002D00E23FB6220E07B6A5C3307F110028A
:1048500092E8030083E803007B6A5B691B6ADB68FC
:10486000002B0AD07B6A5B691B6ADB6807F11802C0
:10487000786A11469847B86205E00023BB6202E0FF
:104880000123FB6205E0BB6A08E0786AF96AFFF77A
:104890007DFCF86AFCF784FA4FF0FF331846303796
:1048A000BD4680BD80B586B000AFF860B9607A6063
:1048B00000237B61F868FFF715FD38613B69002B29
:1048C00079D07B68B868194600F06AFE78617B6928
:1048D000002B00D073E03B69B3F85E30002B67D14A
:1048E0003B695C33184600F0BDFE0346002B5FD0E9
:1048F000B86800F07BFE0346002B2AD1B86800F0B0
:10490000B1FE0346002B11D13B695C3318460021F0
:1049100000F08CFE0346002B08D1B868FEF7A2FD1C
:104920000346002B02D10F237B6148E0BB685B8804
:10493000002B0ED03B695B691B681846B9680022E2
:104940000023FFF711FD0346002B02D00E237B61ED
:1049500035E03B695C33B868194600F0CBFEBB68B4
:104960005B88002B13D13B695B699B79032B0ED0CD
:104970003B695B691A683B695C3310461946FFF76F
:10498000C9FD03461A463B69A3F85E2004E0BB68F4
:104990005A883B69A3F85E203B693433184600F01F
:1049A000DDFC3B694433184600F0D8FC00230CE0E2
:1049B00006237B6103E00120FCF7F2F903E038698C
:1049C0007969FFF7E3FB4FF0FF3318461837BD4610
:1049D00080BD00BF80B586B000AF786000237B61EA
:1049E0007868FFF77FFC38613B69002B13D03B6987
:1049F0005B691B6A9B68002B06D03B695B691B6A7D
:104A00009B683869984778617B69002B0CD178687E
:104A1000FFF758FC08E00123FB6000BFF868FCF7D3
:104A2000BFF94FF0FF3300E07B6918461837BD46E9
:104A300080BD00BF80B586B000AF786039600023CC
:104A40007B617868FFF74EFC38613B69002B12D020
:104A50003B695B69002B17D03B695B691B6ADB69AB
:104A6000002B11D03B695B691B6ADB6938693968C7
:104A70009847786108E00123FB6000BFF868FCF705
:104A80008FF94FF0FF3300E07B6918461837BD46B9
:104A900080BD00BF80B586B000AF7860396000236C
:104AA0003B617868FFF71EFCF860FB68002B2FD095
:104AB000FB681B7B012B03D0FB681B7B022B02D105
:104AC00013237B6128E0FB68B3F85E30002B02D132
:104AD00005237B6120E03B68002B02DA06237B6123
:104AE0001AE0FB685B69002B0FD0FB685B691B6AEF
:104AF0009B6A002B09D0FB685B691B6A9B6AF8689C
:104B00003968984738613B690CE00B237B6103E00F
:104B10000120FCF745F903E0F8687969FFF736FBF7
:104B20004FF0FF3318461837BD4680BD80B588B0BA
:104B300000AFF860B9607A60F868FFF7D3FBB8613E
:104B4000BB69002B61D0BB695B69002B58D0BB6986
:104B50005B691B6A1B69002B52D0BB691B7B032B53
:104B600002D00623FB6154E0BB68002B10D07B68A9
:104B7000002B0DD0BB6903F15C027B681B681046FB
:104B8000194600F00DFDF861FB69002B00D040E0F4
:104B9000FFF75AFB78617B69B3F1FF3F2CD0FDF73B
:104BA00057FBBB695B691B6A1B69B8699847386129
:104BB0003B69002B07D17869FFF784FBFDF756FBB3
:104BC0000423FB6125E078693969FFF767FBBB695E
:104BD0005B6918463969FFF7F5FAFDF747FBBB68D3
:104BE000002B0CD07B68002B09D03B69543318464E
:104BF000B96800F09FFD06E00223FB6109E002E0D6
:104C00000B23FB6105E07B6909E00120FCF7C8F894
:104C100003E0B869F969FFF7B9FA4FF0FF331846B6
:104C20002037BD4680BD00BF80B586B002AFF860BA
:104C3000B9607A603B600023009300230193F86819
:104C4000B9687A683B6800F005F8034618461037E3
:104C5000BD4680BD90B58BB002AFF860B9607A6098
:104C60003B600023BB61F868FFF73CFB78617B6920
:104C7000002B4ED03B6B002B02D07B6B002B0DD159
:104C80007B695433184600F0EDFC0346002B02D03C
:104C90001423FB6141E000233B6312E07B6B386B24
:104CA000194600F07DFCF861FB69002B00D034E070
:104CB000386B00F0D7FC0346002B02D00723FB61C2
:104CC0002BE0BB68002B21D07B68002B1EDB7B69AF
:104CD0001B6D002B02D01523FB611EE07B695B6915
:104CE0001B6A9B69002B0ED07B695B691B6A9C6900
:104CF0003B6B00937869B9687A683B68A047B861F4
:104D000000BFBB690FE00B23FB6106E00623FB61DC
:104D100003E00120FCF744F803E07869F969FFF744
:104D200035FA4FF0FF3318462437BD4690BD00BF1B
:104D300080B586B002AFF860B9607A603B6000234E
:104D4000009300230193F868B9687A683B6800F023
:104D500005F8034618461037BD4680BD90B58BB0A8
:104D600002AFF860B9607A603B600023BB61F8680D
:104D7000FFF7B8FA78617B69002B50D0BB68002B35
:104D80004AD07B68002B47DB7B69B3F85E30002B91
:104D900007D17B695B699B79032B02D00523FB61FB
:104DA00041E03B6B002B10D07B6B002B0DD07B695F
:104DB00003F15C027B6B1B681046194600F0F0FBA8
:104DC000F861FB69002B00D02DE07B691B6C002B88
:104DD00002D01523FB6126E07B695B691B6A5B6976
:104DE000002B16D07B695B691B6A5C693B6B002BEF
:104DF00004D07B6B002B01D03B6B00E000230093C1
:104E00007869B9687A683B68A047B86100BFBB6938
:104E10000FE00B23FB6106E00623FB6103E00120AA
:104E2000FBF7BEFF03E07869F969FFF7AFF94FF0D0
:104E3000FF3318462437BD4690BD00BF80B586B00D
:104E400000AFF860B9607A60F868FFF74BFA386134
:104E50003B69002B2BD0BB68002B02D07B68002B5A
:104E600002D106237B6126E03B6903F15C027B688B
:104E70001B681046194600F093FB78617B69002B94
:104E800000D018E03B69B3F85E30002B07D13B69D6
:104E90005B699B79032B02D005237B610BE03B69A7
:104EA0005C331846B96800F045FC002309E0012096
:104EB000FBF776FF03E038697969FFF767F94FF090
:104EC000FF3318461837BD4680BD00BF80B586B099
:104ED00000AFF860B9607A60F868FFF703FA3861EC
:104EE0003B69002B29D0BB68002B02D07B68002BCC
:104EF00002D106237B6124E03B6903F15C027B68FD
:104F00001B681046194600F04BFB78617B69002B4B
:104F100000D016E03B695433184600F0A3FB03466B
:104F2000002B02D014237B610BE03B6954331846FD
:104F3000B96800F0FFFB002309E00120FBF730FF18
:104F400003E038697969FFF721F94FF0FF3318461C
:104F50001837BD4680BD00BF90B58BB002AFF8607A
:104F6000B9607A603B600023BB61F868FFF7BAF96B
:104F700078617B69002B00F09E803B68002B00F07D
:104F800097803B6B002B00F09380BA684FF6FF735D
:104F90009A4219D07B695B69002B12D07B695B69EF
:104FA0001B6A1B6A002B0CD07B695B691B6A1C6A3D
:104FB0003B6B00937869B9687A683B68A047B86131
:104FC00073E00623FB617AE07B68082B10D0082B86
:104FD00004DC022B34D0042B32D063E0102B2FD012
:104FE000102B5FDBA3F58053013B012B5AD844E023
:104FF0003B6B042B02D00623FB6160E03B685B88BF
:105000001A4613469B0013445B001A467B69C3F89B
:1050100088203B681B88002B08D07B69D3F884204C
:105020007B681A437B69C3F884203EE07B69D3F830
:1050300084207B68DB431A407B69C3F8842034E01A
:105040003B6B032B02D80623FB6138E03B681B68EF
:10505000002B08D07B69D3F884207B681A437B69D6
:10506000C3F8842021E07B69D3F884207B68DB438C
:105070001A407B69C3F8842017E03B6B032B02D8EE
:105080000623FB611BE07A6841F201039A4204D1D6
:105090003B681A687B699A6407E03B681A687B6919
:1050A0009A6302E00923FB6109E000BFBB690CE0E1
:1050B0000623FB6103E00120FBF772FE03E0786941
:1050C000F969FFF763F84FF0FF3318462437BD4600
:1050D00090BD00BF90B58BB002AFF860B9607A6048
:1050E0003B600023BB61F868FFF7FCF878617B69DF
:1050F000002B00F023813B68002B00F01C813B6BF0
:10510000002B00F01881BA684FF6FF739A4219D04D
:105110007B695B69002B12D07B695B691B6A5B6AE8
:10512000002B0CD07B695B691B6A5C6A3B6B00934C
:105130007869B9687A683B68A047B861F8E00623E7
:10514000FB61FFE07B6841F20202934211DCB3F5A0
:10515000805F00F38180042B51D0042B04DC012BF1
:1051600065D0022B4BD0E0E0082B1BD0102B46D093
:10517000DBE041F20702934200F0C18041F20702F6
:10518000934209DC41F2030293427ED041F20602CF
:10519000934200F0A280C8E041F20902934200F37A
:1051A000C48081E03B6B1B68032B02D80623FB61A4
:1051B000C8E03B6B04221A607B69D3F8843003F0AB
:1051C0000803002BD4BF00230123DBB21A463B683F
:1051D0001A807B69D3F88830642202FB03F35E4AAD
:1051E00082FB03129211DB17D31A9AB23B685A80E2
:1051F0003B685B881A467B69C3F8882098E03B6B64
:105200001B68032B02D80623FB619BE03B6B042247
:105210001A607B69D3F884207B681340002BD4BFCD
:1052200000230123DBB21A463B681A6080E03B6B27
:105230001B68032B02D80623FB6183E03B6B04222F
:105240001A607B691B7B032B14BF00230123DBB295
:105250001A463B681A606BE03B6B1B68032B02D855
:105260000623FB616EE03B6B04221A607A6841F210
:1052700001039A4204D17B699A6C3B681A6057E03B
:105280007B699A6B3B681A6052E03B6B1B68002B92
:1052900002D10623FB6155E03B6B01221A607B695A
:1052A0001A7B3B681A7043E03B6B1B68032B02D8E8
:1052B0000623FB6146E03B6B04221A607A6841F2E8
:1052C00008039A4204D17B695A6B3B681A602FE04D
:1052D0007B695A6C3B681A602AE03B6B1B68032BA6
:1052E00002D80623FB612DE03B6B04221A607B6928
:1052F000DA6F3B681A607B690022DA6718E03B6B63
:105300001B68032B02D80623FB611BE03B6B0422C6
:105310001A607B695B69002B03D07B695B699B79B1
:1053200000E000233A68136002E00923FB6109E012
:1053300000BFBB690CE00623FB6103E00120FBF723
:105340002FFD03E07869F969FEF720FF4FF0FF3386
:1053500018462437BD4690BDD34D621080B584B049
:1053600000AF7860FCF774FF7B68002B18D07B6877
:105370009B68002B14D07B689B68FB6007E0FB6890
:105380005B68BB60F868FDF7BBFBBB68FB60FB6854
:10539000002BF4D17B6800229A607B6800221A609F
:1053A000FCF764FF1037BD4680BD00BF80B582B0FA
:1053B00000AF78603960FCF74BFF3B685A697B6847
:1053C0001B681A447B685B689A4204D9FCF74EFF5D
:1053D0004FF0FF3312E07B689B6818463968FDF791
:1053E0001BFE02467B689A607B681A683B685B69B3
:1053F0001A447B681A60FCF739FF00231846083707
:10540000BD4680BD80B586B000AFF860B9607A60F7
:10541000FCF71EFFBB685A69FB681B681A44FB68EF
:105420005B689A4200D927E008200021FDF74EF979
:1054300078617B69002B00D11EE07B69DB683B61F2
:105440003B697A681168526819605A60FB681A688B
:10545000BB685B691A44FB681A607869B968FDF734
:10546000DBFDB860FB6808331846B968FDF706FE37
:10547000FCF7FCFE002303E0FCF7F8FE4FF0FF33DF
:1054800018461837BD4680BD80B584B000AFF860BF
:10549000B9607A603B60FB689B68002B25D07A6816
:1054A000FB689B685B699A4203D9FB689B685B69F0
:1054B0007B60FB689B68184600217A68BB68FDF733
:1054C0007BFA3B68002B12D0FCF7C2FEFB68083366
:1054D00018467968FDF7F2FBFB681A687B68D21AF8
:1054E000FB681A60FCF7C2FE01E000237B607B686A
:1054F00018461037BD4680BD80B586B000AFF86055
:10550000B9607A603B60FB689B687B617B69002BBC
:105510003ED07B691B683B613B69002B0ED07A68EB
:105520003B695B699A4202D93B695B697B60386978
:1055300000217A68BB68FDF73FFA01E000237B6039
:105540007B69DA683B681168526819605A607A684A
:105550007B695B69083B9A4202D24FF0FF337B6064
:105560003B6A002B16D0FCF773FE3B69002B06D07C
:10557000FB681A683B695B69D21AFB681A60FB68B2
:10558000083318467969FDF799FDFCF76FFE01E0D5
:1055900000237B607B6818461837BD4680BD00BF7E
:1055A00080B485B000AF786039600023FB607B6811
:1055B000002B12D03B68002B0FD07B681B8803F0B8
:1055C0000103002B05D03B68072B05D80623FB60A1
:1055D00005E00C23FB6002E001E00623FB60FB68B2
:1055E00018461437BD465DF8047B704780B485B01B
:1055F00000AF78600023FB607B68002B0FD07B68D6
:105600001B8803F00103002B09D07B685B6803F063
:10561000F003E02B14BF00230123DBB2FB60FB6827
:1056200018461437BD465DF8047B704780B584B0DA
:1056300000AF786039600023FB607B68002B0CD0E2
:105640007B681B8803F00103002B06D07B685B6836
:1056500018463968FCF77AFBF860FB681846103783
:10566000BD4680BD80B485B000AF78600123FB608B
:105670007B68002B0DD07B681B8803F00103002B97
:1056800007D07B685B68002B14BF00230123DBB2CB
:10569000FB60FB6818461437BD465DF8047B704715
:1056A00080B485B000AF786039600023FB607B6810
:1056B000002B18D03B68002B15D07B681A883B68FC
:1056C0001B889A420FD17B681B8803F00103002BD3
:1056D00009D07B685A683B685B689A4214BF002314
:1056E0000123DBB2FB60FB6818461437BD465DF84A
:1056F000047B704780B483B000AF786039607B680A
:10570000002B12D03B68002B0FD03B681A887B68B7
:105710001B889A4209D17B681B8803F00103002B88
:1057200003D07B685A683B685A600C37BD465DF809
:10573000047B704780B582B000AF786039607B68C9
:10574000002B0DD03B68002B0AD07B681B8803F030
:105750000103002B04D038687968082200F09AF819
:105760000837BD4680BD00BF80B584B000AF78600B
:105770000023FB607B68002B0AD07B681B88012B11
:1057800006D17B685B681846FCF79CF8F86000BFA0
:10579000FB6818461037BD4680BD00BF80B584B099
:1057A00000AF78604FF0FF33FB607B68002B18D0B0
:1057B0000E4B1B68002B14D17B681A687B685B68F2
:1057C00010461946FDF7B2FCF860FB68002B08D1C3
:1057D00000F030F8F860FB68002B02D1034B012287
:1057E0001A60FB6818461037BD4680BD640700107C
:1057F00080B582B000AF074B3B604FF470537B60C5
:105800003B461846FFF7CAFF034618460837BD4611
:1058100080BD00BF9007001080B500AF044B1B682F
:10582000002B04D000F02AF8014B00221A6080BD42
:105830006407001080B500AFFCF796FD642004F00B
:1058400081FA0346B3F1FF3F00D111E0FEF750F9B2
:105850000346B3F1FF3F00D10AE0FEF78DFCFDF7F0
:105860000BFD0346B3F1FF3F00D101E0002303E04D
:1058700000F004F84FF0FF33184680BD80B500AF4C
:10588000FDF742FDFEF772F904F06EFAFDF7EAFC4F
:1058900080BD00BF80B48DB000AFF860B9607A60A1
:1058A000BB683B62FB68FB61BB68BB61FB687B61FB
:1058B000BB68FB62FB68BB627B68032B40F26481C0
:1058C000BB6803F00103002B12D0BB683B62FB688E
:1058D000FB61FB695A1CFA613A6A511C3962127801
:1058E0001A703B6ABB60FB69FB607B68013B7B60B5
:1058F000BB6803F00203002B12D0BB68BB61FB68DE
:105900007B617B699A1C7A61BA69911CB9611288C2
:105910001A80BB69BB607B69FB607B68023B7B6074
:10592000BB68FB62FB68BB627B689B097B6282E0B1
:10593000BB6A1A1DBA62FA6A111DF96212681A600E
:10594000BB6A1A1DBA62FA6A111DF96212681A60FE
:10595000BB6A1A1DBA62FA6A111DF96212681A60EE
:10596000BB6A1A1DBA62FA6A111DF96212681A60DE
:10597000BB6A1A1DBA62FA6A111DF96212681A60CE
:10598000BB6A1A1DBA62FA6A111DF96212681A60BE
:10599000BB6A1A1DBA62FA6A111DF96212681A60AE
:1059A000BB6A1A1DBA62FA6A111DF96212681A609E
:1059B000BB6A1A1DBA62FA6A111DF96212681A608E
:1059C000BB6A1A1DBA62FA6A111DF96212681A607E
:1059D000BB6A1A1DBA62FA6A111DF96212681A606E
:1059E000BB6A1A1DBA62FA6A111DF96212681A605E
:1059F000BB6A1A1DBA62FA6A111DF96212681A604E
:105A0000BB6A1A1DBA62FA6A111DF96212681A603D
:105A1000BB6A1A1DBA62FA6A111DF96212681A602D
:105A2000BB6A1A1DBA62FA6A111DF96212681A601D
:105A30007B6A013B7B627B6A002B7FF479AF7B68DA
:105A40009B0803F00F03013B0E2B00F2998001A28B
:105A500052F823F0715B0000615B0000515B0000B5
:105A6000415B0000315B0000215B0000115B000026
:105A7000015B0000F15A0000E15A0000D15A000019
:105A8000C15A0000B15A0000A15A0000915A00000A
:105A9000BB6A1A1DBA62FA6A111DF96212681A60AD
:105AA000BB6A1A1DBA62FA6A111DF96212681A609D
:105AB000BB6A1A1DBA62FA6A111DF96212681A608D
:105AC000BB6A1A1DBA62FA6A111DF96212681A607D
:105AD000BB6A1A1DBA62FA6A111DF96212681A606D
